{
  "contractName": "Voting",
  "abi": [
    {
      "inputs": [
        {
          "internalType": "string[]",
          "name": "candidateNames",
          "type": "string[]"
        }
      ],
      "stateMutability": "nonpayable",
      "type": "constructor"
    },
    {
      "anonymous": false,
      "inputs": [
        {
          "indexed": false,
          "internalType": "string",
          "name": "message",
          "type": "string"
        },
        {
          "indexed": false,
          "internalType": "address",
          "name": "voter",
          "type": "address"
        }
      ],
      "name": "VoteStatus",
      "type": "event"
    },
    {
      "inputs": [
        {
          "internalType": "uint256",
          "name": "",
          "type": "uint256"
        }
      ],
      "name": "candidates",
      "outputs": [
        {
          "internalType": "string",
          "name": "name",
          "type": "string"
        },
        {
          "internalType": "uint256",
          "name": "voteCount",
          "type": "uint256"
        }
      ],
      "stateMutability": "view",
      "type": "function",
      "constant": true
    },
    {
      "inputs": [],
      "name": "owner",
      "outputs": [
        {
          "internalType": "address",
          "name": "",
          "type": "address"
        }
      ],
      "stateMutability": "view",
      "type": "function",
      "constant": true
    },
    {
      "inputs": [
        {
          "internalType": "address",
          "name": "",
          "type": "address"
        }
      ],
      "name": "voters",
      "outputs": [
        {
          "internalType": "bool",
          "name": "hasVoted",
          "type": "bool"
        },
        {
          "internalType": "uint256",
          "name": "votedCandidateId",
          "type": "uint256"
        }
      ],
      "stateMutability": "view",
      "type": "function",
      "constant": true
    },
    {
      "inputs": [
        {
          "internalType": "uint256",
          "name": "candidateId",
          "type": "uint256"
        }
      ],
      "name": "vote",
      "outputs": [],
      "stateMutability": "nonpayable",
      "type": "function"
    },
    {
      "inputs": [],
      "name": "getCandidates",
      "outputs": [
        {
          "components": [
            {
              "internalType": "string",
              "name": "name",
              "type": "string"
            },
            {
              "internalType": "uint256",
              "name": "voteCount",
              "type": "uint256"
            }
          ],
          "internalType": "struct Voting.Candidate[]",
          "name": "",
          "type": "tuple[]"
        }
      ],
      "stateMutability": "view",
      "type": "function",
      "constant": true
    },
    {
      "inputs": [],
      "name": "endVoting",
      "outputs": [],
      "stateMutability": "nonpayable",
      "type": "function"
    }
  ],
  "bytecode": "0x608060405234801562000010575f80fd5b506040516200140a3803806200140a833981810160405281019062000036919062000398565b335f806101000a81548173ffffffffffffffffffffffffffffffffffffffff021916908373ffffffffffffffffffffffffffffffffffffffff1602179055505f5b8151811015620001135760016040518060400160405280848481518110620000a457620000a3620003e7565b5b602002602001015181526020015f815250908060018154018082558091505060019003905f5260205f2090600202015f909190919091505f820151815f019081620000f091906200064b565b5060208201518160010155505080806200010a906200075c565b91505062000077565b5050620007a8565b5f604051905090565b5f80fd5b5f80fd5b5f80fd5b5f601f19601f8301169050919050565b7f4e487b71000000000000000000000000000000000000000000000000000000005f52604160045260245ffd5b620001788262000130565b810181811067ffffffffffffffff821117156200019a576200019962000140565b5b80604052505050565b5f620001ae6200011b565b9050620001bc82826200016d565b919050565b5f67ffffffffffffffff821115620001de57620001dd62000140565b5b602082029050602081019050919050565b5f80fd5b5f80fd5b5f67ffffffffffffffff82111562000214576200021362000140565b5b6200021f8262000130565b9050602081019050919050565b5f5b838110156200024b5780820151818401526020810190506200022e565b5f8484015250505050565b5f6200026c6200026684620001f7565b620001a3565b9050828152602081018484840111156200028b576200028a620001f3565b5b620002988482856200022c565b509392505050565b5f82601f830112620002b757620002b66200012c565b5b8151620002c984826020860162000256565b91505092915050565b5f620002e8620002e284620001c1565b620001a3565b905080838252602082019050602084028301858111156200030e576200030d620001ef565b5b835b818110156200035c57805167ffffffffffffffff8111156200033757620003366200012c565b5b808601620003468982620002a0565b8552602085019450505060208101905062000310565b5050509392505050565b5f82601f8301126200037d576200037c6200012c565b5b81516200038f848260208601620002d2565b91505092915050565b5f60208284031215620003b057620003af62000124565b5b5f82015167ffffffffffffffff811115620003d057620003cf62000128565b5b620003de8482850162000366565b91505092915050565b7f4e487b71000000000000000000000000000000000000000000000000000000005f52603260045260245ffd5b5f81519050919050565b7f4e487b71000000000000000000000000000000000000000000000000000000005f52602260045260245ffd5b5f60028204905060018216806200046357607f821691505b6020821081036200047957620004786200041e565b5b50919050565b5f819050815f5260205f209050919050565b5f6020601f8301049050919050565b5f82821b905092915050565b5f60088302620004dd7fffffffffffffffffffffffffffffffffffffffffffffffffffffffffffffffff82620004a0565b620004e98683620004a0565b95508019841693508086168417925050509392505050565b5f819050919050565b5f819050919050565b5f620005336200052d620005278462000501565b6200050a565b62000501565b9050919050565b5f819050919050565b6200054e8362000513565b620005666200055d826200053a565b848454620004ac565b825550505050565b5f90565b6200057c6200056e565b6200058981848462000543565b505050565b5b81811015620005b057620005a45f8262000572565b6001810190506200058f565b5050565b601f821115620005ff57620005c9816200047f565b620005d48462000491565b81016020851015620005e4578190505b620005fc620005f38562000491565b8301826200058e565b50505b505050565b5f82821c905092915050565b5f620006215f198460080262000604565b1980831691505092915050565b5f6200063b838362000610565b9150826002028217905092915050565b620006568262000414565b67ffffffffffffffff81111562000672576200067162000140565b5b6200067e82546200044b565b6200068b828285620005b4565b5f60209050601f831160018114620006c1575f8415620006ac578287015190505b620006b885826200062e565b86555062000727565b601f198416620006d1866200047f565b5f5b82811015620006fa57848901518255600182019150602085019450602081019050620006d3565b868310156200071a578489015162000716601f89168262000610565b8355505b6001600288020188555050505b505050505050565b7f4e487b71000000000000000000000000000000000000000000000000000000005f52601160045260245ffd5b5f620007688262000501565b91507fffffffffffffffffffffffffffffffffffffffffffffffffffffffffffffffff82036200079d576200079c6200072f565b5b600182019050919050565b610c5480620007b65f395ff3fe608060405234801561000f575f80fd5b5060043610610060575f3560e01c80630121b93f1461006457806306a49fce146100805780633477ee2e1461009e5780638da5cb5b146100cf578063a3ec138d146100ed578063c3403ddf1461011e575b5f80fd5b61007e600480360381019061007991906105e4565b610128565b005b6100886102ef565b604051610095919061079d565b60405180910390f35b6100b860048036038101906100b391906105e4565b6103e4565b6040516100c6929190610814565b60405180910390f35b6100d7610499565b6040516100e49190610881565b60405180910390f35b610107600480360381019061010291906108c4565b6104bc565b604051610115929190610909565b60405180910390f35b6101266104e8565b005b60025f3373ffffffffffffffffffffffffffffffffffffffff1673ffffffffffffffffffffffffffffffffffffffff1681526020019081526020015f205f015f9054906101000a900460ff16156101b5577f09497891883ab4724da04948d5cbcad4c50f357683be3b9040883a9f55020464336040516101a8919061097a565b60405180910390a16102ec565b60018054905081106101fd577f09497891883ab4724da04948d5cbcad4c50f357683be3b9040883a9f55020464336040516101f091906109f0565b60405180910390a16102ec565b60405180604001604052806001151581526020018281525060025f3373ffffffffffffffffffffffffffffffffffffffff1673ffffffffffffffffffffffffffffffffffffffff1681526020019081526020015f205f820151815f015f6101000a81548160ff02191690831515021790555060208201518160010155905050600181815481106102905761028f610a1c565b5b905f5260205f2090600202016001015f8154809291906102af90610a76565b91905055507f09497891883ab4724da04948d5cbcad4c50f357683be3b9040883a9f55020464336040516102e39190610b07565b60405180910390a15b50565b60606001805480602002602001604051908101604052809291908181526020015f905b828210156103db578382905f5260205f2090600202016040518060400160405290815f8201805461034290610b60565b80601f016020809104026020016040519081016040528092919081815260200182805461036e90610b60565b80156103b95780601f10610390576101008083540402835291602001916103b9565b820191905f5260205f20905b81548152906001019060200180831161039c57829003601f168201915b5050505050815260200160018201548152505081526020019060010190610312565b50505050905090565b600181815481106103f3575f80fd5b905f5260205f2090600202015f91509050805f01805461041290610b60565b80601f016020809104026020016040519081016040528092919081815260200182805461043e90610b60565b80156104895780601f1061046057610100808354040283529160200191610489565b820191905f5260205f20905b81548152906001019060200180831161046c57829003601f168201915b5050505050908060010154905082565b5f8054906101000a900473ffffffffffffffffffffffffffffffffffffffff1681565b6002602052805f5260405f205f91509050805f015f9054906101000a900460ff16908060010154905082565b5f8054906101000a900473ffffffffffffffffffffffffffffffffffffffff1673ffffffffffffffffffffffffffffffffffffffff163373ffffffffffffffffffffffffffffffffffffffff1614610575576040517f08c379a000000000000000000000000000000000000000000000000000000000815260040161056c90610c00565b60405180910390fd5b5f8054906101000a900473ffffffffffffffffffffffffffffffffffffffff1673ffffffffffffffffffffffffffffffffffffffff16ff5b5f80fd5b5f819050919050565b6105c3816105b1565b81146105cd575f80fd5b50565b5f813590506105de816105ba565b92915050565b5f602082840312156105f9576105f86105ad565b5b5f610606848285016105d0565b91505092915050565b5f81519050919050565b5f82825260208201905092915050565b5f819050602082019050919050565b5f81519050919050565b5f82825260208201905092915050565b5f5b8381101561066f578082015181840152602081019050610654565b5f8484015250505050565b5f601f19601f8301169050919050565b5f61069482610638565b61069e8185610642565b93506106ae818560208601610652565b6106b78161067a565b840191505092915050565b6106cb816105b1565b82525050565b5f604083015f8301518482035f8601526106eb828261068a565b915050602083015161070060208601826106c2565b508091505092915050565b5f61071683836106d1565b905092915050565b5f602082019050919050565b5f6107348261060f565b61073e8185610619565b93508360208202850161075085610629565b805f5b8581101561078b578484038952815161076c858261070b565b94506107778361071e565b925060208a01995050600181019050610753565b50829750879550505050505092915050565b5f6020820190508181035f8301526107b5818461072a565b905092915050565b5f82825260208201905092915050565b5f6107d782610638565b6107e181856107bd565b93506107f1818560208601610652565b6107fa8161067a565b840191505092915050565b61080e816105b1565b82525050565b5f6040820190508181035f83015261082c81856107cd565b905061083b6020830184610805565b9392505050565b5f73ffffffffffffffffffffffffffffffffffffffff82169050919050565b5f61086b82610842565b9050919050565b61087b81610861565b82525050565b5f6020820190506108945f830184610872565b92915050565b6108a381610861565b81146108ad575f80fd5b50565b5f813590506108be8161089a565b92915050565b5f602082840312156108d9576108d86105ad565b5b5f6108e6848285016108b0565b91505092915050565b5f8115159050919050565b610903816108ef565b82525050565b5f60408201905061091c5f8301856108fa565b6109296020830184610805565b9392505050565b7f596f75206861766520616c7265616479206361737420796f757220766f7465005f82015250565b5f610964601f836107bd565b915061096f82610930565b602082019050919050565b5f6040820190508181035f83015261099181610958565b90506109a06020830184610872565b92915050565b7f496e76616c69642063616e6469646174652049440000000000000000000000005f82015250565b5f6109da6014836107bd565b91506109e5826109a6565b602082019050919050565b5f6040820190508181035f830152610a07816109ce565b9050610a166020830184610872565b92915050565b7f4e487b71000000000000000000000000000000000000000000000000000000005f52603260045260245ffd5b7f4e487b71000000000000000000000000000000000000000000000000000000005f52601160045260245ffd5b5f610a80826105b1565b91507fffffffffffffffffffffffffffffffffffffffffffffffffffffffffffffffff8203610ab257610ab1610a49565b5b600182019050919050565b7f566f74652063617374207375636365737366756c6c79000000000000000000005f82015250565b5f610af16016836107bd565b9150610afc82610abd565b602082019050919050565b5f6040820190508181035f830152610b1e81610ae5565b9050610b2d6020830184610872565b92915050565b7f4e487b71000000000000000000000000000000000000000000000000000000005f52602260045260245ffd5b5f6002820490506001821680610b7757607f821691505b602082108103610b8a57610b89610b33565b5b50919050565b7f4f6e6c79206f776e65722063616e2063616c6c20746869732066756e6374696f5f8201527f6e00000000000000000000000000000000000000000000000000000000000000602082015250565b5f610bea6021836107bd565b9150610bf582610b90565b604082019050919050565b5f6020820190508181035f830152610c1781610bde565b905091905056fea2646970667358221220a66279da515a913e207d81988ed1132cfacde0501d6f3e5e8419654ca329391f64736f6c63430008150033",
  "immutableReferences": {},
  "source": "// SPDX-License-Identifier: MIT\npragma solidity ^0.8.0;\n\ncontract Voting {\n  struct Candidate {\n    string name;\n    uint voteCount;\n  }\n\n  struct Voter {\n    bool hasVoted;\n    uint votedCandidateId;\n  }\n\n  address public owner;\n  Candidate[] public candidates;\n  mapping(address => Voter) public voters;\n\n  event VoteStatus(string message, address voter);\n\n  modifier onlyOwner() {\n    require(msg.sender == owner, \"Only owner can call this function\");\n    _;\n  }\n\n  constructor(string[] memory candidateNames) {\n    owner = msg.sender;\n    for (uint i = 0; i < candidateNames.length; i++) {\n      candidates.push(Candidate({ name: candidateNames[i], voteCount: 0 }));\n    }\n  }\n\n  function vote(uint candidateId) public {\n    if (voters[msg.sender].hasVoted) {\n      emit VoteStatus(\"You have already cast your vote\", msg.sender);\n      return;\n    }\n    if (candidateId >= candidates.length) {\n      emit VoteStatus(\"Invalid candidate ID\", msg.sender);\n      return;\n    }\n\n    voters[msg.sender] = Voter({ hasVoted: true, votedCandidateId: candidateId });\n    candidates[candidateId].voteCount++;\n    emit VoteStatus(\"Vote cast successfully\", msg.sender);\n  }\n\n  function getCandidates() public view returns (Candidate[] memory) {\n    return candidates;\n  }\n\n  function endVoting() public onlyOwner {\n    selfdestruct(payable(owner));\n  }\n}\n",
  "sourcePath": "/var/www/html/Blockchain-Demo/voting-system/contracts/Voting.sol",
  "compiler": {
    "name": "solc",
    "version": "0.8.21+commit.d9974bed.Emscripten.clang"
  },
  "schemaVersion": "3.4.16",
  "updatedAt": "2024-12-05T05:11:58.839Z",
  "networkType": "ethereum",
  "devdoc": {
    "kind": "dev",
    "methods": {},
    "version": 1
  },
  "userdoc": {
    "kind": "user",
    "methods": {},
    "version": 1
  }
}